{
  "_format": "hh-sol-artifact-1",
  "contractName": "CarDataStorage",
  "sourceName": "contracts/Autolog.sol",
  "abi": [
    {
      "inputs": [],
      "stateMutability": "nonpayable",
      "type": "constructor"
    },
    {
      "inputs": [
        {
          "internalType": "string",
          "name": "",
          "type": "string"
        },
        {
          "internalType": "uint256",
          "name": "",
          "type": "uint256"
        }
      ],
      "name": "carData",
      "outputs": [
        {
          "internalType": "string",
          "name": "",
          "type": "string"
        }
      ],
      "stateMutability": "view",
      "type": "function"
    },
    {
      "inputs": [
        {
          "internalType": "string",
          "name": "plateNo",
          "type": "string"
        },
        {
          "internalType": "string",
          "name": "carDetails",
          "type": "string"
        }
      ],
      "name": "updateCar",
      "outputs": [],
      "stateMutability": "nonpayable",
      "type": "function"
    },
    {
      "inputs": [
        {
          "internalType": "string",
          "name": "plateNo",
          "type": "string"
        }
      ],
      "name": "viewCar",
      "outputs": [
        {
          "internalType": "string[]",
          "name": "",
          "type": "string[]"
        }
      ],
      "stateMutability": "view",
      "type": "function"
    }
  ],
  "bytecode": "0x60806040523480156200001157600080fd5b50620000726040518060400160405280600781526020017f54455354313233000000000000000000000000000000000000000000000000008152506040518060800160405280604181526020016200111460419139620001b460201b60201c565b620000ee6040518060400160405280600781526020017f54455354313233000000000000000000000000000000000000000000000000008152506040518060400160405280601c81526020017f54686520656e67696e652062656c7420776173206368616e6765642e00000000815250620001b460201b60201c565b6200014e6040518060400160405280600781526020017f4c4f4f5431323300000000000000000000000000000000000000000000000000815250604051806060016040528060268152602001620010c560269139620001b460201b60201c565b620001ae6040518060400160405280600681526020017f5a554c3132330000000000000000000000000000000000000000000000000000815250604051806060016040528060298152602001620010eb60299139620001b460201b60201c565b620005f5565b600082604051620001c6919062000286565b9081526020016040518091039020819080600181540180825580915050600190039060005260206000200160009091909190915090816200020891906200050e565b505050565b600081519050919050565b600081905092915050565b60005b838110156200024357808201518184015260208101905062000226565b60008484015250505050565b60006200025c826200020d565b62000268818562000218565b93506200027a81856020860162000223565b80840191505092915050565b60006200029482846200024f565b915081905092915050565b7f4e487b7100000000000000000000000000000000000000000000000000000000600052604160045260246000fd5b7f4e487b7100000000000000000000000000000000000000000000000000000000600052602260045260246000fd5b600060028204905060018216806200031657607f821691505b6020821081036200032c576200032b620002ce565b5b50919050565b60008190508160005260206000209050919050565b60006020601f8301049050919050565b600082821b905092915050565b600060088302620003967fffffffffffffffffffffffffffffffffffffffffffffffffffffffffffffffff8262000357565b620003a2868362000357565b95508019841693508086168417925050509392505050565b6000819050919050565b6000819050919050565b6000620003ef620003e9620003e384620003ba565b620003c4565b620003ba565b9050919050565b6000819050919050565b6200040b83620003ce565b620004236200041a82620003f6565b84845462000364565b825550505050565b600090565b6200043a6200042b565b6200044781848462000400565b505050565b5b818110156200046f576200046360008262000430565b6001810190506200044d565b5050565b601f821115620004be57620004888162000332565b620004938462000347565b81016020851015620004a3578190505b620004bb620004b28562000347565b8301826200044c565b50505b505050565b600082821c905092915050565b6000620004e360001984600802620004c3565b1980831691505092915050565b6000620004fe8383620004d0565b9150826002028217905092915050565b62000519826200020d565b67ffffffffffffffff8111156200053557620005346200029f565b5b620005418254620002fd565b6200054e82828562000473565b600060209050601f83116001811462000586576000841562000571578287015190505b6200057d8582620004f0565b865550620005ed565b601f198416620005968662000332565b60005b82811015620005c05784890151825560018201915060208501945060208101905062000599565b86831015620005e05784890151620005dc601f891682620004d0565b8355505b6001600288020188555050505b505050505050565b610ac080620006056000396000f3fe608060405234801561001057600080fd5b50600436106100415760003560e01c8063068d389a146100465780634d14b3cf14610076578063550fae68146100a6575b600080fd5b610060600480360381019061005b9190610437565b6100c2565b60405161006d91906105c1565b60405180910390f35b610090600480360381019061008b9190610619565b6101b9565b60405161009d91906106bf565b60405180910390f35b6100c060048036038101906100bb91906106e1565b610288565b005b60606000826040516100d49190610795565b9081526020016040518091039020805480602002602001604051908101604052809291908181526020016000905b828210156101ae578382906000526020600020018054610121906107db565b80601f016020809104026020016040519081016040528092919081815260200182805461014d906107db565b801561019a5780601f1061016f5761010080835404028352916020019161019a565b820191906000526020600020905b81548152906001019060200180831161017d57829003601f168201915b505050505081526020019060010190610102565b505050509050919050565b60008280516020810182018051848252602083016020850120818352809550505050505081815481106101eb57600080fd5b90600052602060002001600091509150508054610207906107db565b80601f0160208091040260200160405190810160405280929190818152602001828054610233906107db565b80156102805780601f1061025557610100808354040283529160200191610280565b820191906000526020600020905b81548152906001019060200180831161026357829003601f168201915b505050505081565b6000826040516102989190610795565b9081526020016040518091039020819080600181540180825580915050600190039060005260206000200160009091909190915090816102d891906109b8565b505050565b6000604051905090565b600080fd5b600080fd5b600080fd5b600080fd5b6000601f19601f8301169050919050565b7f4e487b7100000000000000000000000000000000000000000000000000000000600052604160045260246000fd5b610344826102fb565b810181811067ffffffffffffffff821117156103635761036261030c565b5b80604052505050565b60006103766102dd565b9050610382828261033b565b919050565b600067ffffffffffffffff8211156103a2576103a161030c565b5b6103ab826102fb565b9050602081019050919050565b82818337600083830152505050565b60006103da6103d584610387565b61036c565b9050828152602081018484840111156103f6576103f56102f6565b5b6104018482856103b8565b509392505050565b600082601f83011261041e5761041d6102f1565b5b813561042e8482602086016103c7565b91505092915050565b60006020828403121561044d5761044c6102e7565b5b600082013567ffffffffffffffff81111561046b5761046a6102ec565b5b61047784828501610409565b91505092915050565b600081519050919050565b600082825260208201905092915050565b6000819050602082019050919050565b600081519050919050565b600082825260208201905092915050565b60005b838110156104e65780820151818401526020810190506104cb565b60008484015250505050565b60006104fd826104ac565b61050781856104b7565b93506105178185602086016104c8565b610520816102fb565b840191505092915050565b600061053783836104f2565b905092915050565b6000602082019050919050565b600061055782610480565b610561818561048b565b9350836020820285016105738561049c565b8060005b858110156105af5784840389528151610590858261052b565b945061059b8361053f565b925060208a01995050600181019050610577565b50829750879550505050505092915050565b600060208201905081810360008301526105db818461054c565b905092915050565b6000819050919050565b6105f6816105e3565b811461060157600080fd5b50565b600081359050610613816105ed565b92915050565b600080604083850312156106305761062f6102e7565b5b600083013567ffffffffffffffff81111561064e5761064d6102ec565b5b61065a85828601610409565b925050602061066b85828601610604565b9150509250929050565b600082825260208201905092915050565b6000610691826104ac565b61069b8185610675565b93506106ab8185602086016104c8565b6106b4816102fb565b840191505092915050565b600060208201905081810360008301526106d98184610686565b905092915050565b600080604083850312156106f8576106f76102e7565b5b600083013567ffffffffffffffff811115610716576107156102ec565b5b61072285828601610409565b925050602083013567ffffffffffffffff811115610743576107426102ec565b5b61074f85828601610409565b9150509250929050565b600081905092915050565b600061076f826104ac565b6107798185610759565b93506107898185602086016104c8565b80840191505092915050565b60006107a18284610764565b915081905092915050565b7f4e487b7100000000000000000000000000000000000000000000000000000000600052602260045260246000fd5b600060028204905060018216806107f357607f821691505b602082108103610806576108056107ac565b5b50919050565b60008190508160005260206000209050919050565b60006020601f8301049050919050565b600082821b905092915050565b60006008830261086e7fffffffffffffffffffffffffffffffffffffffffffffffffffffffffffffffff82610831565b6108788683610831565b95508019841693508086168417925050509392505050565b6000819050919050565b60006108b56108b06108ab846105e3565b610890565b6105e3565b9050919050565b6000819050919050565b6108cf8361089a565b6108e36108db826108bc565b84845461083e565b825550505050565b600090565b6108f86108eb565b6109038184846108c6565b505050565b5b818110156109275761091c6000826108f0565b600181019050610909565b5050565b601f82111561096c5761093d8161080c565b61094684610821565b81016020851015610955578190505b61096961096185610821565b830182610908565b50505b505050565b600082821c905092915050565b600061098f60001984600802610971565b1980831691505092915050565b60006109a8838361097e565b9150826002028217905092915050565b6109c1826104ac565b67ffffffffffffffff8111156109da576109d961030c565b5b6109e482546107db565b6109ef82828561092b565b600060209050601f831160018114610a225760008415610a10578287015190505b610a1a858261099c565b865550610a82565b601f198416610a308661080c565b60005b82811015610a5857848901518255600182019150602085019450602081019050610a33565b86831015610a755784890151610a71601f89168261097e565b8355505b6001600288020188555050505b50505050505056fea2646970667358221220e56e48ebc76253e5b7fdeca2fffe178aa49ccaa79131e88397f7dadc02101ab164736f6c63430008110033546865206261636b20676c6173732069732062726f6b656e2c206e656564206368616e67652e44726976657220646f6f72206973206d697373696e672c206e656564207265706c6163656d656e742e5468652066726f6e742070617274206f66207468652063617220697320746f206265207265706c616365642064756520746f207365766572652064616d6167652e",
  "linkReferences": {},
  "deployedLinkReferences": {}
}